:020000040000FA
:1000000002EF00F0710E406E880E416E690E426E76
:10001000970E436E816A836A936A956A000E076E33
:100020004024070001E3072A52EC00F047EC00F0FF
:1000300047EC00F047EC00F083504124070001E357
:10004000072A52EC00F047EC00F047EC00F047ECD8
:1000500000F083504224070001E3072A52EC00F02D
:1000600047EC00F047EC00F047EC00F083504324ED
:10007000070001E3072A52EC00F047EC00F047ECE0
:1000800000F047EC00F08350066E45EF00F0FF0EE5
:10009000046EFF0E056E000000000506FCE104067C
:0C00A000F8E11200836E07C081FF12001F
:0200AC00000052
:020000040030CA
:010001000CF2
:010003001EDE
:010005008179
:010006008178
:00000001FF
