:020000040000FA
:100000000A128A11FC2F00308A000408840A820731
:1000100000344D344134453420343C3433343334AB
:10002000333400345034413454345234493443343A
:06003000493441340034A4
:100CE600F20083120313081172080A128A11B2263F
:100CF6000A128A110A128A1199260A128A11080002
:100D060000300A128A1173260A128A1101300A1259
:100D16008A1173260A128A110D30F400FB30F30093
:100D2600F30B932EF40B932E982E080083120313C5
:100D360088150430F1003D30F000F00BA02EF10BC9
:100D4600A02EA52E8312031388110430F1003D3026
:100D5600F000F00BAC2EF10BAC2EB12E0800F0001B
:100D6600701CB62EB72EBB2E831203130816BE2E8A
:100D7600831203130812F01CC12EC22EC42E88162D
:100D8600C52E8812701DC82EC92ECB2E0817CC2E44
:100D96000813F01DCF2ED02ED22E8817D32E8813EF
:100DA6000800F800F601F701EB2E760878078400B4
:100DB6000A128A1103200A128A110A128A1123279B
:100DC6000A128A110130F6070318F70A0030F707EE
:100DD6007608780784000A128A1103200A128A11FB
:100DE600003A031DF72EF82ED82E08000A128A1193
:100DF600A1270A128A110A128A1183260A128A1157
:100E0600F301F30A01300A128A1150270A128A11D5
:100E16000A300A128A11D4260A128A11F301F30A39
:100E260002300A128A1150270A128A1101300A1258
:100E36008A11D4260A128A11032F0A128A1100284F
:100E4600F50075080F39F2007208F3007508F039DD
:100E5600F2007208F4008312031308157408F200F6
:100E660004300310F20CFF3E031D342F72080A12E1
:100E76008A11B2260A128A110A128A1199260A12B0
:100E86008A1173080A128A11B2260A128A110A12E4
:100E96008A1199260A128A110800F6007603031DA4
:100EA600552F562F782F73087F3EF4007408F900EB
:100EB6007908F40004300310F40CFF3E031D5E2F86
:100EC6007408F5007508F80079080F39F4007408FD
:100ED600F70078080A128A1173260A128A1177080F
:100EE6000A128A1173260A128A1102307606031D27
:100EF6007D2F7E2FA02F7308BF3EF4007408F900E3
:100F06007908F40004300310F40CFF3E031D862F0D
:100F16007408F5007508F80079080F39F4007408AC
:100F2600F70078080A128A1173260A128A117708BE
:100F36000A128A1173260A128A1108008230F400F6
:100F4600DD30F300F30BA52FF40BA52FAA2F831684
:100F5600031308080339880003300A128A1173261E
:100F66000A128A112130F4007630F300F30BB92F00
:100F7600F40BB92F000003300A128A1173260A12E5
:100F86008A11C730F300C72FF30BC62FCA2FCB2FFA
:100F960003300A128A1173260A128A1102300A12C3
:100FA6008A1173260A128A1102300A128A117326CE
:100FB6000A128A1108300A128A1173260A128A1135
:100FC60000300A128A1173260A128A110C300A128C
:100FD6008A1173260A128A1100300A128A117326A0
:100FE6000A128A1106300A128A1173260A128A1107
:0A0FF600080083010A128A11F92E87
:02400E003A3F37
:00000001FF
