:020000040000FA
:060000000A128A110C280F
:10000800FE00030EF1000A08F2000A128A114228C3
:100018000A128A110F28F60183010A128A1114287C
:100028008316031306108610081483120313061090
:1000380010140A128A1158200A128A11643076069E
:10004800031D272828282D2801308312031386062C
:10005800F60102308312031386060730F500583084
:10006800F4005930F300F30B3728F40B3728F50B5D
:1000780037283E2822280A128A110C2883120313D3
:100088000C1C4728482851280130F0007008F60752
:100098003C308F00B0308E000C1072088A00710E50
:1000A8008300FE0E7E0E09008B170B1783160313B1
:1000B8000C14831203130C109010901210123C3081
:0800C8008F00B0308E0008002B
:02400E003A3F37
:00000001FF
