:020000040000FA
:060000000A128A11FC2F18
:100F0200F000700883160313920007118312031373
:100F12001210921097151715121508007008013952
:100F2200F200F20E8312031317087206EF397206EB
:100F3200970070080239F200F20EF20D17087206DD
:100F4200DF39720697007108F3007008F20003108F
:100F5200F30CF20C0310F30CF20C7208950008006B
:100F6200F9300A128A1181270A128A11F601F70151
:100F7200D12F7708F1007608F0000A128A118F2724
:100F82000A128A110130F6070318F70A0030F70730
:100F92000730F5007D30F400F40BCD2FF50BCD2F8B
:100FA20003307702E83003197602031CD92FDA2FB7
:100FB200BA2FF22F7708F1007608F0000A128A1190
:100FC2008F270A128A110130F6020030031CF70340
:100FD200F7020730F5007D30F400F40BEE2FF50B2D
:100FE200EE2F76087704031DF72FF82FDB2FB72F8C
:0E0FF2000A128A11002883010A128A11B12FF7
:02400E003A3F37
:00000001FF
