:020000040000FA
:060000000A128A11FC2F18
:100784008316031311081F39031DC92BCA2BC22B4F
:100794001419CD2BCE2BC22B08000A128A11C223A6
:1007A4000A128A118316031311141118DA2BDB2B86
:1007B400D72B831203138C1108000A128A11C22347
:1007C4000A128A118316031311151119EA2BEB2B44
:1007D400E72B831203138C110800F1000A128A110B
:1007E400C2230A128A110A128A11CF230A128A1109
:1007F40078300A128A115B240A128A1100300A1214
:100804008A115B240A128A1171080A128A115B2464
:100814000A128A110A128A11DF230A128A110800A5
:100824007008F2007108F3001D2C0130F207031860
:10083400F30A0030F307730883120313FF007208EE
:1008440084000A128A1500200A128A11003A031D34
:100854002C2C2D2C172C70087202F0007108031C2C
:10086400710A7302F1000800F401F501701C3B2CBD
:100874003C2C422C7208F4070318F50A7308F50798
:1008840001300310F20DF30DFF3E031D432C013024
:100894000310F10CF00CFF3E031D4A2C7008710488
:1008A400031D552C562C382C7508F1007408F000E3
:1008B4000800F0000A128A11C2230A128A11700871
:1008C400831203139300941F682C692C6C2C9413CB
:1008D400700893008C1D6F2C702C6C2C83160313E2
:1008E400111F752C762C7B2C0A128A11DF230A1215
:1008F4008A11831203138C11831603131108080041
:10090400F4000A128A11C2230A128A110A128A11E5
:10091400CF230A128A1178300A128A115B240A1230
:100924008A1100300A128A115B240A128A112130BA
:100934000A128A115B240A128A1174080A128A1193
:100944005B240A128A1171080A128A115B240A12A2
:100954008A1122300A128A115B240A128A1172083F
:100964000A128A115B240A128A1173080A128A1164
:100974005B240A128A110A128A11DF230A128A11CD
:100984000800183083120313A400240883160313E9
:100994008704831203132008A4002108A500220859
:1009A400A6002308A70002300310A40DA50DA60D70
:1009B400A70DFF3E031DD62C2708F3002608F200DE
:1009C4002508F1002408F0000130F7003130F6006A
:1009D4002D30F5000030F4000A128A11A0250A1205
:1009E4008A117008FF3E831603139300941728306E
:1009F40083120313A4002408940483160313110818
:100A0400831203138C1108007F30F5007508F10080
:100A1400F2010730F6007608F30000300A128A115A
:100A240082240A128A11F701F8010A128A11C223D8
:100A34000A128A110A128A11CF230A128A117830F3
:100A44000A128A115B240A128A1140300A128A118E
:100A54005B240A128A1100300A128A115B240A12DA
:100A64008A110A128A11DF230A128A110130F70748
:100A74000318F80A0030F8077808803AFF0083303A
:100A84007F02031D472DFF307702031C4A2D4B2D97
:100A9400172D08007F30F7007708F100F2010730C6
:100AA400F8007808F30000300A128A1182240A122E
:100AB4008A11F901FA010A128A11C2230A128A114F
:100AC4000A128A11CF230A128A1178300A128A1163
:100AD4005B240A128A1140300A128A115B240A121A
:100AE4008A117908750784007A0803187A0A760748
:100AF40083120313FF000A128A1500200A128A11B6
:100B04000A128A115B240A128A110A128A11DF233B
:100B14000A128A110130F9070318FA0A0030FA0799
:100B24007A08803AFF0084307F02031D9B2D003039
:100B34007902031C9E2D9F2D5D2D08000030FC00C2
:100B44000030FB000030FA000030F9007308720432
:100B5400710470040319AF2DB02DFD2DFD01FD0AA4
:100B6400C02D0130F8000310F00DF10DF20DF30D5E
:100B7400F80BB52D0130F8007808FD07F31FC32DDD
:100B8400C42DB32D0130F8000310F90DFA0DFB0D3F
:100B9400FC0DF80BC62D73087702031DDB2D7208BC
:100BA4007602031DDB2D71087502031DDB2D700811
:100BB4007402031CDE2DDF2DEE2D7008F402710883
:100BC400031C710FF5027208031C720FF6027308FE
:100BD400031C730FF702791401300310F30CF20CA9
:100BE400F10CF00CFF3E031DEF2D0130FD02031D3F
:100BF400FC2DFD2DC42D7C08F3007B08F2007A083F
:100C0400F1007908F00008007608F0007708F10098
:100C14000A128A1112240A128A117108F900700842
:100C2400F800FA01FB018F2EFC01FD010A128A1162
:100C3400CF230A128A1178300A128A115B240A120D
:100C44008A1140300A128A115B240A128A117A0826
:100C5400760783120313A1007708A0000318A00AE3
:100C6400FA1F352EA003831203132008A2002208C2
:100C7400FF00210884000A128A1500200A128A1132
:100C8400A300A4012308F0002408F1000530F200B9
:100C94000030F3000A128A1136240A128A117230C3
:100CA40083120313A5008B30A60070082507A70044
:100CB40071080318710A2607A8007C082707840016
:100CC4007D0803187D0A2807FF000A128A150020F0
:100CD4000A128A110A128A115B240A128A110A1250
:100CE4008A11DF230A128A110130FC070318FD0A56
:100CF4000030FD077D08803AFF0080307F02031D2D
:100D0400852E05307C02031C882E892E182E013076
:100D1400FA070318FB0A0030FB0779087B02031D5E
:100D2400952E78087A02031C982E992E162E080008
:100D34000A128A1142270A128A11033083120313FA
:100D4400AD008A30AC005530AB00AB0BA72EAC0B1A
:100D5400A72EAD0BA72E0A128A1106250A128A1194
:100D6400F230F5009930F6000A128A114C250A1265
:100D74008A11063083120313AD001330AC00AD307A
:100D8400AB00AB0BC32EAC0BC32EAD0BC32EF2309A
:100D9400F5009530F6000A128A114C250A128A11C0
:100DA400063083120313AD001330AC00AD30AB003A
:100DB400AB0BDA2EAC0BDA2EAD0BDA2EF230F500DB
:100DC4009130F6000A128A114C250A128A11063053
:100DD40083120313AD001330AC00AD30AB00AB0B8A
:100DE400F12EAC0BF12EAD0BF12EF230F5008D305F
:100DF400F6000A128A114C250A128A11063083124F
:100E04000313AD001330AC00AD30AB00AB0B082FB7
:100E1400AC0B082FAD0B082F0A128A1106250A12F3
:100E24008A117F3083120313AB002B08F1000230C8
:100E3400AC002C08F2000730AD002D08F3000030A0
:100E44000A128A1182240A128A11F230F6009D30A5
:100E5400F7000A128A1106260A128A113330831205
:100E64000313AD00BB30AC00DF30AB00AB0B382F4D
:100E7400AC0B382FAD0B382FB22E0A128A11002872
:100E8400003083120313A3000130A2008630A100B6
:100E9400A030A0000A128A11C3240A128A11063053
:100EA40083120313AA001330A900AD30A800A80BC5
:100EB400592FA90B592FAA0B592FAE300A128A1198
:100EC400EF230A128A11D5300A128A11EF230A126B
:100ED4008A1180300A128A11EF230A128A11A8306B
:100EE4000A128A11EF230A128A113F300A128A1158
:100EF400EF230A128A11D3300A128A11EF230A123D
:100F04008A1100300A128A11EF230A128A11403022
:100F14000A128A11EF230A128A118D300A128A11D9
:100F2400EF230A128A1114300A128A11EF230A12CB
:100F34008A1120300A128A11EF230A128A11003012
:100F44000A128A11EF230A128A11A1300A128A1195
:100F5400EF230A128A11C8300A128A11EF230A12E7
:100F64008A11DA300A128A11EF230A128A11123016
:100F74000A128A11EF230A128A1181300A128A1185
:100F8400EF230A128A1180300A128A11EF230A12FF
:100F94008A11D9300A128A11EF230A128A11F13008
:100FA4000A128A11EF230A128A11DB300A128A11FB
:100FB400EF230A128A1120300A128A11EF230A122F
:100FC4008A11A4300A128A11EF230A128A11A63058
:100FD4000A128A11EF230A128A112E300A128A1178
:100FE400EF230A128A11AF300A128A11EF230A1270
:100FF4008A11080083010A128A119A2EFF1B0A28FB
:1010040083137F1883170008840A0319FF0A080052
:101014007F087F398A000408840A0319FF0A8200C2
:10102400003400340034003400340034003400341C
:10103400003400340034003400340034003400340C
:1010440000340034003400340034003400340034FC
:1010540000340034003400340034003400340034EC
:1010640000340034003400340034003400340034DC
:1010740000340034003400340034003400340034CC
:1010840000340034003400340034003400340034BC
:1010940000340034003400340034003400340034AC
:1010A400003400340034003400340034003400349C
:1010B400003400340034003400340034003400348C
:1010C400003400340034003400340034003400347C
:1010D4000034003480348034C034C034E034E0342C
:1010E400E034F034D034983418340C340C340434F0
:1010F4000634063402340234033403340334033430
:10110400033403348334E6347E340034003400344E
:10111400003400340034003400340034003400342B
:10112400003400340034003400340034003400341B
:10113400003400340034003400340034003400340B
:1011440000340034003400340034003400340034FB
:1011540000340034003400340034003400340034EB
:1011640000340034003400340034003400340034DB
:1011740000340034003400340034003400340034CB
:1011840000340034003400340034003400340034BB
:1011940000340034003400340034003400340034AB
:1011A4000034003480348034C034403440346034FB
:1011B400203420342034203430342034A034E0343B
:1011C400E03460343034303418340C340C341E348D
:1011D4003E347F34FF34FF34FF34FF34FF34FF34B4
:1011E400FF34FF34FF34FF34FF34FE34FC34F03476
:1011F400C034003400348034C034603430341834A3
:101204000C34073403340034003400340034003424
:10121400003400340034003400340034003400342A
:10122400003400340034003400340034003400341A
:10123400003400340034003400340034003400340A
:1012440000340034003400340034003400340034FA
:1012540000340034003400340034003400340034EA
:1012640000340034003400340034003400340034DA
:1012740000340034003400340034003400340034CA
:1012840000340034003400340034003400340034BA
:101294000034003460343034383428342434163480
:1012A40012341134113430346034C0348034E034B6
:1012B400703438341C340C34063403340134803430
:1012C400C034C034E034E03470347834383400341A
:1012D400003400340034013407341F34FF34FF3445
:1012E400FF34FF34FF347F343F343F341F340F3432
:1012F400073403340334013400340034003400343C
:101304000034003400340034003400340034003439
:101314000034003400340034003400340034003429
:101324000034003400340034003400340034003419
:101334000034003400340034003400340034003409
:1013440000340034003400340034003400340034F9
:1013540000340034003400340034003400340034E9
:1013640000340034003400340034003400340034D9
:1013740000340034003400340034003480348034C9
:10138400C0344034603420342034303410341034C9
:101394001834983488348034C03440346034203471
:1013A4002034303490348034C034E03463347634C0
:1013B40038343834DC349C340E3407340734833402
:1013C40083348134C034C034403460342034303405
:1013D4009034F83408340C340634063403340134BD
:1013E4000134003400340034003400340034003458
:1013F4000034003400340034003400340034003449
:101404000034003400340034003400340034003438
:101414000034003400340034003400340034003428
:101424000034003400340034003400340034003418
:101434000034003400340034003400340034003408
:1014440000340034003400340034003400340034F8
:1014540000340034003400340034003400340034E8
:1014640000348034C03440346034303410341834A0
:101474000C34043486348234C3344134613430341B
:101484001034183408340C3404340634023403346D
:1014940001340134003400348034C03460343034D6
:1014A4000034033403348134C134603430340034C0
:1014B4000034003400340334C7347B340134013441
:1014C40001348034803440342034303418340634C9
:1014D4000334003400340034003400340034003465
:1014E4000034003400340034003400340034003458
:1014F4000034003400340034003400340034003448
:101504000034003400340034003400340034003437
:101514000034003400340034003400340034003427
:101524000034003400340034003400340034003417
:101534000034003400340034003400340034003407
:1015440000340034003400340034003400340034F7
:101554008034C0346034303418340C3406340234EB
:101564008334C13460342034103418340C340434DB
:1015740002340334013400340034003400340034C1
:1015840000348034803440346034203430341834AF
:101594000C34063402348334C134603430341834A7
:1015A4000C34063403340134003400340034003481
:1015B40018341C340E340B340D3404340234023425
:1015C4000134013400340034003400340034003475
:1015D4000034003400340034003400340034003467
:1015E4000034003400340034003400340034003457
:1015F4000034003400340034003400340034003447
:101604000034003400340034003400340034003436
:101614000034003400340034003400340034003426
:101624000034003400340034003400340034003416
:101634000034003400340034003400340034003406
:101644000034C0346034303418340C340634033479
:10165400013400346034303418340C340634033428
:1016640001340034003400340034003400341034C5
:101674001034183408340C340434063402348334FB
:101684008134C134403460343034103418340C3470
:10169400043402340334013400340034003400349C
:1016A4000034003400340034003400340034003496
:1016B4000034003400340034003400340034003486
:1016C4000034003400340034003400340034003476
:1016D4000034003400340034003400340034003466
:1016E4000034003400340034003400340034003456
:1016F4000034003400340034003400340034003446
:101704000034003400340034003400340034003435
:101714000034003400340034003400340034003425
:101724000034003400340034003400340034003415
:101734000034003400348034603470345C34463413
:101744006334613420342034303430341034103471
:101754001834083408340C34E434FE344E3442343F
:101764006034603420343034303410341834083465
:1017740008340C34043406340234033401340134A0
:1017840000340034003400340034003400340034B5
:1017940000340034003400340034003400340034A5
:1017A4000034003400340034003400340034003495
:1017B4000034003400340034003400340034003485
:1017C4000034003400340034003400340034003475
:1017D4000034003400340034003400340034003465
:1017E4000034003400340034003400340034003455
:1017F4000034003400340034003400340034003445
:101804000034003400340034003400340034003434
:101814000034003400340034003400340034003424
:1018240000340034003400340034003400345F34B5
:1018340000340034003407340034073400341434E2
:101844007F3414347F34143424342A347F342A34D7
:10185400123423341334083464346234363449344F
:101864005534223450340034053403340034003405
:1018740000341C34223441340034003441342234E2
:101884001C340034143408343E340834143408341A
:1018940008343E34083408340034503430340034CE
:1018A400003408340834083408340834003460340C
:1018B40060340034003420341034083404340234E6
:1018C4003E345134493445343E34003442347F3458
:1018D4004034003442346134513449344634213480
:1018E400413445344B3431341834143412347F3495
:1018F4001034273445344534453439343C344A347F
:1019040049344934303401347134093405340334EE
:101914003634493449344934363406344934493444
:1019240029341E3400343634363400340034003460
:1019340056343634003400340834143422344134F8
:10194400003414341434143414341434003441344E
:101954002234143408340234013451340934063442
:1019640032344934793441343E347E3411341134C0
:1019740011347E347F3449344934493436343E3466
:1019840041344134413422347F34413441342234AB
:101994001C347F3449344934493441347F34093464
:1019A4000934093401343E344134493449347A34F5
:1019B4007F340834083408347F34003441347F34AD
:1019C400413400342034403441343F3401347F34D2
:1019D40008341434223441347F34403440344034A5
:1019E40040347F3402340C3402347F347F34043482
:1019F400083410347F343E344134413441343E346D
:101A04007F3409340934093406343E3441345134C2
:101A140021345E347F34093419342934463446344D
:101A24004934493449343134013401347F34013484
:101A340001343F344034403440343F341F34203484
:101A4400403420341F343F344034383440343F343D
:101A5400633414340834143463340734083470346D
:101A64000834073461345134493445344334003440
:101A74007F344134413400340234043408341034A3
:101A840020340034413441347F340034043402348B
:101A9400013402340434403440344034403440345B
:101AA40000340134023404340034203454345434C3
:101AB400543478347F3448344434443438343834F7
:101AC400443444344434203438344434443448347E
:101AD4007F343834543454345434183408347E3411
:101AE4000934013402340C345234523452343E3406
:101AF4007F340834043404347834003444347D347A
:101B0400403400342034403444343D3400347F3491
:101B14001034283444340034003441347F344034A5
:101B240000347C3404341834043478347C34083479
:101B34000434043478343834443444344434383445
:101B44007C34143414341434083408341434143401
:101B540018347C347C340834043404340834483471
:101B6400543454345434203404343F3444344034EE
:101B740020343C344034403420347C341C3420340D
:101B8400403420341C343C344034303440343C340D
:101B9400443428341034283444340C34503450340D
:101BA40050343C344434643454344C344434003479
:101BB4000834363441340034003400347F34003483
:101BC40000340034413436340834003410340834DA
:101BD4000834103408347834463441344634783484
:101BE4000034003400340034003400340034003451
:101BF4000034003400340034003400340034003441
:101C04000034003400340034003400340034003430
:101C14000034003400340034003400340034003420
:101C24000034003400340034003400348034803410
:101C340080348034C034C034C034C034C034E03460
:101C4400E034E034E034E034E034E034E034E034F0
:101C5400E034E03470347034703470347034703480
:101C64007034703470347034F034E034E034E03480
:101C7400E034E034E034E034E034E034E034C034E0
:101C8400C034C034C034C0348034803480348034B0
:101C94008034003400340034003400340034003420
:101CA4000034003400340034003400340034003490
:101CB4000034003400340034003400340034003480
:101CC4000034003400340034003400340034003470
:101CD4000034003400340034003400340034003460
:101CE4000034003400340034003400340034003450
:101CF4000034003400340034003400340034003440
:101D04000034003400348034C034C034E034E0346F
:101D1400F034F034F834783478343C343C341E34C1
:101D24001E340E340F340F340734073407340334AD
:101D340003340334033401340134013401340134F1
:101D440001340034003400340034003400340034EE
:101D540000340034003400340034003400340034DF
:101D640000340034003400340034003400340034CF
:101D740000340034003400340034003401340134BD
:101D84000134013401340334033403340334073499
:101D9400073407340F340F340E341E341E343C34ED
:101DA4003C343C3478347834F034F034E034E03487
:101DB400C034C0348034003400340034003400347F
:101DC400003400340034003400340034003400346F
:101DD400003400340034003400340034003400345F
:101DE400003400340034003400340034003400344F
:101DF400003400340034C034E034F034F834FC34BB
:101E0400FE347F343F341F340F3407340334013439
:101E1400013400340034003400340034003400341D
:101E2400003400340034003400340034003400340E
:101E3400003480348034803480348034803480347E
:101E440000340034003400340034003400340034EE
:101E540000340034003400340034003400340034DE
:101E640000340034003400340034003400340034CE
:101E740000340034003400340034003480348034BE
:101E8400803480348034803480340034003400342E
:101E9400003400340034003400340034003400349E
:101EA4000034003400340034003401340134033489
:101EB40007340F340F341F347F34FE34FC34F834C9
:101EC400F034E034C034803400340034003400345E
:101ED400003400340034003400340034003400345E
:101EE400003400340034003400340034003400344E
:101EF400F034FE34FF34FF34FF34FF340F34033442
:101F0400003400340034003400340034003400342D
:101F1400003400340034003400340034003400341D
:101F24000034003400340034003400340034063407
:101F34000F341F341F341F341F341F341F341F3415
:101F44000F340F34003400340034003400340034CF
:101F540000340034003400340034003400340034DD
:101F640000340034003400340034003400340034CD
:101F7400003400340034003406340F341F341F346A
:101F84001F341F341F341F341F340F340F340034F4
:101F9400003400340034003400340034003400349D
:101FA400003400340034003400340034003400348D
:101FB4000034003400340034003400340134073475
:101FC400FF34FF34FF34FF34FE34F834003400347B
:101FD400003400340034003400340034003400345D
:101FE400003400340034003400340034003400344D
:101FF4000F347F34FF34FF34FF34FF34F034803443
:10200400003400340034003400340034003400342C
:10201400003400340034003400340034003400341C
:102024000034003400340C340C341C343E343E345C
:102034007C3478347834F034F034E034E034E03410
:10204400C034C034C034C0348034803480348034EC
:1020540080348034003400340034003400340034DC
:10206400003400340034003400348034803480344C
:10207400803480348034C034C034C034C034E0345C
:10208400E034F034F034783478347C343C343E3406
:102094001C341C340C340034003400340034003458
:1020A400003400340034003400340034003400348C
:1020B4000034003400340034003400348034E0341C
:1020C400FF34FF34FF34FF34FF343F340034003432
:1020D400003400340034003400340034003400345C
:1020E400003400340034003400340034003400344C
:1020F400003400340134033407340F341F343F34C4
:102104007F34FC34F834F034E034E034C0348034C8
:10211400003400340034003400340034003400341B
:10212400003400340034003400340034003400340B
:1021340000340034003400340034003401340134F9
:10214400013401340334FF34FF34FF34FF34FF34EB
:10215400FF3487340734073407340734073407342B
:1021640007340734073407348734FF34FF34FF342B
:10217400FF34FF34FF3403340134013401340134B7
:1021840000340034003400340034003400340034AB
:10219400003400340034003400340034003400349B
:1021A4000034003400340034003400348034C0344B
:1021B400C034E034F034F834FC347E347F343F34BB
:1021C4001F340F3407340134003400340034003435
:1021D400003400340034003400340034003400345B
:1021E400003400340034003400340034003400344B
:1021F400003400340034003400340034003400343B
:1022040000340034013401340334073407340F3408
:102214000F341F341E343E343C343C347834783428
:102224007034F034F034E034E034E034C034C0349A
:10223400C0348034803480348034803400340034BA
:1022440000340034003400340134033403340334E0
:102254000734073407340F340F340E340E340E347D
:102264000E340F340F340734073407340334033483
:1022740003340134003400340034003400340034B6
:1022840080348034803480348034C034C034C034EA
:10229400C034E034E034E034F034703478347834EA
:1022A4003C343C343C341E341F340F340F34073474
:1022B400073403340134013400340034003400346E
:1022C400003400340034003400340034003400346A
:1022D400003400340034003400340034003400345A
:1022E400003400340034003400340034003400344A
:1022F400003400340034003400340034003400343A
:102304000034003400340034003400340034003429
:102314000034003400340034003400340034003419
:102324000034003400340034013401340134013405
:1023340003340334033403340334073407340734D5
:1023440007340734073407340F340E340E340E3494
:102354000E340E340E340E340E340E340E340E3469
:102364000E340E340E340E340E340E340E340E3459
:102374000E340F3407340734073407340734073472
:102384000734033403340334033403340134013491
:102394000134013400340034003400340034003497
:1023A4000034003400340034003400340034003489
:1023B4000034003400340034003400340034003479
:1023C4000034003400340034003400340034003469
:1023D4000034003400340034003400340034003459
:1023E4000034003400340034003400340034003449
:1023F4000034003400340034003400340034003439
:102404000034003400340034003400340034003428
:102414000034003400340034003400340034003418
:102424000034003400340034003400348034803408
:1024340080348034C034C034C034C034C034C03478
:10244400E034E034E034E034E034E034E034E034E8
:10245400E0347034703470347034703470347034E8
:10246400703470347034703470347034E034E03468
:10247400E034E034E034E034E034E034E034E034B8
:10248400C034C034C034C034C03480348034803468
:102494008034003400340034003400340034003418
:1024A4000034003400340034003400340034003488
:1024B4000034003400340034003400340034003478
:1024C4000034003400340034003400340034003468
:1024D4000034003400340034003400340034003458
:1024E4000034003400340034003400340034003448
:1024F4000034003400340034003400340034003438
:1025040000340034003480348034C034C034E034C7
:10251400F034F034F034783478343C343C341E34C1
:102524001E340E340F340F340734073407340334A5
:1025340003340334033401340134013401340134E9
:1025440000340034003400340034003400340034E7
:1025540000340034003400340034003400340034D7
:1025640000340034003400340034003400340034C7
:1025740000340034003400340034003400340134B6
:102584000134013401340134033403340334033497
:102594000734073407340F340F341E341E341E340A
:1025A4003C343C3478347834F834F034F034E03467
:1025B400C034C034803480340034003400340034F7
:1025C4000034003400340034003400340034003467
:1025D4000034003400340034003400340034003457
:1025E4000034003400340034003400340034003447
:1025F4000034003400348034C034E034F834FC3423
:10260400FC347E343F341F340F3407340334033432
:102614000134003400340034003400340034003415
:102624000034003400340034003400340034003406
:1026340000340034803480348034803480348034F6
:102644008034003400340034003400340034003466
:1026540000340034003400340034003400340034D6
:1026640000340034003400340034003400340034C6
:102674000034003400340034003400340034803436
:102684008034803480348034803400340034003426
:102694000034003400340034003400340034003496
:1026A4000034003400340034003400340134033482
:1026B400033407340F341F343F347E34FC34FC3489
:1026C400F834F034C034803400340034003400343E
:1026D4000034003400340034003400340034003456
:1026E4000034003400340034003400340034003446
:1026F4000034F834FE34FF34FF34FF34FF3407343D
:102704000134003400340034003400340034003424
:102714000034003400340034E034E034E034E03495
:10272400E034C034C034C03480340034003406345F
:102734000F340F340F341F341F341F341F341F342D
:102744000F340F34063400340034003400340034C1
:1027540000340034003400340034003400340034D5
:1027640000340034003400340034003400340034C5
:10277400003400340034003406340F340F341F3472
:102784001F341F341F341F341F340F340F340634E6
:10279400003400348034C034C034C034E034E03415
:1027A400E034E034E03400340034003400340034E5
:1027B400003400340034003400340034013407346D
:1027C4007F34FF34FF34FF34FF34FC34803400346E
:1027D4000034003400340034003400340034003455
:1027E4000034003400340034003400340034003445
:1027F40000341F347F34FF34FF34FF34FF34F034AB
:1028040080340034003400340034003400340034A4
:102814000034003400340034C034E034E034E134B3
:10282400F134FB34FF347F347F343F343F343C3461
:102834003834783478347034F034E034E034E034CC
:10284400E034C034C034C034C034C034C034803404
:1028540080348034803480348034803480348034D4
:1028640080348034803480348034803480348034C4
:10287400C034C034C034C034C034C034E034E03474
:10288400E034E034F03470347834783438343C3420
:102894003F343F347F347F34FF34FB34F134E1344C
:1028A400E034E034C0340034003400340034003404
:1028B4000034003400340034003400348034E03414
:1028C400FE34FF34FF34FF347F341F3401340034CA
:1028D4000034003400340034003400340034003454
:1028E4000034003400340034003400340034003444
:1028F4000034003400340134033407340F341F34FB
:102904003F347F347E34FC34F834F034E034C03463
:102914008034803400340034013401340034003411
:102924000034003400340034003400340034003403
:1029340000340034003400340034003400340034F3
:1029440001340134013401340134013403340334D7
:1029540003340334033403340334033403340334BB
:1029640003340334033403340334033403340334AB
:1029740003340134013401340134013401340034AA
:1029840000340034003400340034003400340034A3
:102994000034003400340034003400340034003493
:1029A4000034013401340034003480348034C034C1
:1029B400E034F034F034F834FC347F343F341F34E2
:1029C4000F34073403340134003400340034003449
:1029D4000034003400340034003400340034003453
:1029E4000034003400340034003400340034003443
:1029F4000034003400340034003400340034003433
:102A04000034003400340034013401340334073416
:102A140007340F340F340F341E341E343C343C342A
:102A24003834783478347034F034E034E034E034DA
:102A3400E034C034C034C034C03480348034803492
:102A44008034803480340034003400340034003462
:102A540000340034003400340034003400340034D2
:102A640000340034003400340034003400340034C2
:102A740000340034003400348034803480348034B2
:102A840080348034C034C034C034C034E034E034E2
:102A9400E034E034F03470347034783438343C3416
:102AA4003C341E341E341F340F340F3407340734BF
:102AB400033403340134003400340034003400346B
:102AC4000034003400340034003400340034003462
:102AD4000034003400340034003400340034003452
:102AE4000034003400340034003400340034003442
:102AF4000034003400340034003400340034003432
:102B04000034003400340034003400340034003421
:102B14000034003400340034003400340034003411
:102B24000034003400340034003400340034003401
:102B340001340134013401340334033403340334E1
:102B440003340334033407340734073407340734B5
:102B54000734073407340734073407340734073499
:102B64000734073407340734073407340734073489
:102B74000734073407340734033403340334033489
:102B84000334033403340134013401340134003494
:102B94000034003400340034003400340034003491
:102BA4000034003400340034003400340034003481
:102BB4000034003400340034003400340034003471
:102BC4000034003400340034003400340034003461
:102BD4000034003400340034003400340034003451
:102BE4000034003400340034003400340034003441
:102BF4000034003400340034003400340034003431
:102C04000034003400340034003400340034003420
:102C14000034003400340034003400340034003410
:102C24000034003400340034003400348034803400
:102C340080348034C034C034C034C034C034C03470
:102C4400E034E034E034E034E034E034E034E034E0
:102C5400E0347034703470347034703470347034E0
:102C6400703470347034703470347034E034E03460
:102C7400E034E034E034E034E034E034E034C034D0
:102C8400C034C034C034C034C03480348034803460
:102C94008034003400340034003400340034003410
:102CA4000034003400340034003400340034003480
:102CB4000034003400340034003400340034003470
:102CC4000034003400340034003400340034003460
:102CD4000034003400340034003400340034003450
:102CE4000034003400340034003400340034003440
:102CF4000034003400340034003400340034003430
:102D040000340034003400348034C034C034E0343F
:102D1400E034F034F034F83478343C343C341C344B
:102D24001E341E340E340F3407340734073407348A
:102D340003340334033403340134013401340134DF
:102D440001340034003400340034003400340034DE
:102D540000340034003400340034003400340034CF
:102D640000340034003400340034003400340034BF
:102D740000340034003400340034003401340134AD
:102D84000134013401340334033403340334073489
:102D94000734073407340F340E341E341E341C3405
:102DA4003C343C3478347834F034F034E034E03477
:102DB400C034C0348034003400340034003400346F
:102DC400003400340034003400340034003400345F
:102DD400003400340034003400340034003400344F
:102DE400003400340034003400340034003400343F
:102DF40000340034003400348034E034F034F834E7
:102E0400FC34FE347E343F341F340F34073403342F
:102E1400013401340034003400340034003400340C
:102E2400003400340034003400340034003480347E
:102E340080348034803480348034803480348034EE
:102E4400803480348034003400340034003400345E
:102E540000340034003400340034003400340034CE
:102E640000340034003400340034003400340034BE
:102E740000340034003400348034803480348034AE
:102E8400803480348034803480348034803480349E
:102E9400003400340034003400340034003400348E
:102EA4000034003400340034003401340134033479
:102EB40007340F341F343F347F34FE34FC34F83489
:102EC400F034E034C03400340034003400340034CE
:102ED400003400340034003400340034003400344E
:102EE400003400340034003400340034003400343E
:102EF4000034E034FC34FF34FF34FF34FF341F3437
:102F0400033400340034003400340034003400341A
:102F1400003400340034003400340034003400340D
:102F2400003400340C340E340F340F340F340F34A7
:102F340007340334033403340334033403340334D1
:102F4400033407340F340F340F340F340E340C347D
:102F540000340034003400340034003400340034CD
:102F640000340034003400340034003400340C34B1
:102F74000E340E340F340F340F3407340334033457
:102F840003340334033403340334033407340F3475
:102F94000F340F340F340E340C340834003400343E
:102FA400003400340034003400340034003400347D
:102FB40000340034003400340034003403341F344B
:102FC400FF34FF34FF34FF34FC34E0340034003485
:102FD400003400340034003400340034003400344D
:102FE400003400340034003400340034003400343D
:102FF400003403341F347F34FF34FF34FF34F83497
:10300400E0348034003400340034003400340034BC
:10301400003400340034003400340034003400340C
:1030240000340034003400348034C034C034C0343C
:10303400C034C034803400340034003400340034EC
:1030440000340034003400340034003400340034DC
:1030540000340034003400340034003400340034CC
:1030640000340034003400340034003400340034BC
:1030740000340034003400340034003400340034AC
:10308400003400340034003480348034C034C0341C
:10309400C034C0348034003400340034003400348C
:1030A400003400340034003400340034003400347C
:1030B400003400340034003400348034C034F83434
:1030C400FF34FF34FF34FF343F340734003400341A
:1030D400003400340034003400340034003400344C
:1030E400003400340034003400340034003400343C
:1030F40000340034003400340134033407340F3412
:103104001F343F347E34FC34F834F034E034E0349B
:10311400C03480348034003400340034003400344B
:1031240000340034003400340034013401340334F6
:103134000334073407340F340F340E341E341E3472
:103144001C341C343C34383438343834383438344F
:10315400703470347034703470347034703470344B
:103164007034703470347034703470347034783433
:1031740038343834383438343C341C341C341E3439
:103184001E340E340F340F3407340734033403343D
:103194000134013400340034003400340034003489
:1031A400003400340034003400348034C034C0347B
:1031B400E034F034F834FC347E343F343F341F348C
:1031C4000F34073401340034003400340034003444
:1031D400003400340034003400340034003400344B
:1031E400003400340034003400340034003400343B
:1031F400003400340034003400340034003400342B
:103204000034003400340034003401340334033413
:10321400073407340F340F341E341E343C343C342A
:103224003834783478347034F034F034E034E034C2
:10323400E034C034C034C034C0348034803480348A
:10324400803480348034003400340034003400345A
:1032540000340034003400340034003400340034CA
:1032640000340034003400340034003400340034BA
:1032740000340034003400348034803480348034AA
:1032840080348034C034C034C034C034E034E034DA
:10329400E034F034F03470347834783438343C34F6
:1032A4003C341E341E340F340F34073407340334D3
:1032B4000334013401340034003400340034003465
:1032C400003400340034003400340034003400345A
:1032D400003400340034003400340034003400344A
:1032E400003400340034003400340034003400343A
:1032F400003400340034003400340034003400342A
:103304000034003400340034003400340034003419
:103314000034003400340034003400340034003409
:1033240000340034003400340034003400340034F9
:1033340001340134013401340134033403340334DB
:1033440003340334033407340734073407340734AD
:103354000734073407340734073407340734073491
:103364000734073407340734073407340734073481
:103374000734073407340734033403340334033481
:10338400033403340334013401340134013400348C
:103394000034003400340034003400340034003489
:1033A4000034003400340034003400340034003479
:1033B4000034003400340034003400340034003469
:1033C4000034003400340034003400340034003459
:1033D4000034003400340034003400340034003449
:1033E4000034003400340034003400340034003439
:1033F4000034003400340034003400340034003429
:103404000034003400340034003400340034003418
:103414000034003400340034003400340034003408
:1034240000340034003400340034003400340034F8
:10343400003480348034803480348034C034C034E8
:10344400C034C034C034C034C034C034E034E03498
:10345400E034E034E034E034E034E034E034E034C8
:10346400E034E034E034E034E034E034E034E034B8
:10347400E034C034C034C034C034C034C034C03488
:10348400C034803480348034803480340034003458
:103494000034003400340034003400340034003488
:1034A4000034003400340034003400340034003478
:1034B4000034003400340034003400340034003468
:1034C4000034003400340034003400340034003458
:1034D4000034003400340034003400340034003448
:1034E4000034003400340034003400340034003438
:1034F4000034003400340034003400340034003428
:10350400003400340034003400348034C034C03417
:10351400E034E034F034F0347834783478343C34C3
:103524003C341C341E340E340E340F340F34073440
:1035340007340734033403340334033403340134C9
:1035440001340134013401340134013400340034D1
:1035540000340034003400340034003400340034C7
:1035640000340034003400340034003400340034B7
:1035740000340034013401340134013401340134A1
:103584000334033403340334033407340734073473
:1035940007340F340E340E341E341C343C343C34A3
:1035A400383478347834F034F034E034E034C034EF
:1035B400C034803400340034003400340034003427
:1035C4000034003400340034003400340034003457
:1035D4000034003400340034003400340034003447
:1035E4000034003400340034003400340034003437
:1035F40000340034003400348034C034E034F03417
:10360400F834FC347E343F341F340F340734073429
:103614000334013401340034003400340034003401
:1036240000340034003400340034003400340034F6
:103634000034003400348034803480348034803466
:103644008034003400340034003400340034003456
:1036540000340034003400340034003400340034C6
:1036640000340034003400340034003400340034B6
:103674000034003400340034003400340034803426
:103684008034803480348034803400340034003416
:103694000034003400340034003400340034003486
:1036A400003400340034003401340134033407346A
:1036B40007340F341F343F347E34FC34F834F83488
:1036C400F034E03480340034003400340034003406
:1036D4000034003400340034003400340034003446
:1036E4000034003400340034003400340034003436
:1036F4000034C034FC34FF34FF34FF34FF341F344F
:10370400073401340034003400340034003400340D
:103714000034003400340034003400340034003405
:1037240000340034003400340034003400340034F5
:1037340006340F340F341F341F341F341F341F3426
:103744001F340F340F340634003400340034003492
:1037540000340034003400340034003400340034C5
:1037640000340034003400340034003400340034B5
:10377400003400340034003406340F340F341F3462
:103784001F341F341F341F341F340F340F340634D6
:103794000034003400340034003400340034003485
:1037A4000034003400340034003400340034003475
:1037B40000340034003400340034013403341F3442
:1037C400FF34FF34FF34FF34FC34E034003400347D
:1037D4000034003400340034003400340034003445
:1037E4000034003400340034003400340034003435
:1037F400003403343F34FF34FF34FF34FF34F834EF
:10380400E0348034003400340034003400340034B4
:103814000034003400340034003400340034003404
:10382400003400340034003480348034C034C03474
:10383400C034C034803400340034003400340034E4
:1038440000340034003400340034003400340034D4
:1038540000340034003400340034003400340034C4
:1038640000340034003400340034003400340034B4
:1038740000340034003400340034003400340034A4
:10388400003400340034003480348034C034C03414
:10389400C034803480348034003400340034003444
:1038A4000034003400340034003400340034003474
:1038B400003400340034003400348034C034F8342C
:1038C400FF34FF34FF34FF343F3407340034003412
:1038D4000034003400340034003400340034003444
:1038E4000034003400340034003400340034003434
:1038F40000340034003400340134033407340F340A
:103904001F343F347E34FC34F834F034E034E03493
:10391400C034803480340034003400340034003443
:1039240000340034003400340034013401340334EE
:1039340003340734073407340F340E341E341E3472
:103944001C341C343C343834383438343834383447
:10395400383470347034703470347034703470347B
:10396400703470347034703470347034703438346B
:1039740038343834383438343C341C341C341E3431
:103984001E340E340F340F34073407340334033435
:103994000134013400340034003400340034003481
:1039A400003400340034003480348034C034C034F3
:1039B400E034F034F834FC347E343F341F341F34A4
:1039C4000F3407340134003400340034003400343C
:1039D4000034003400340034003400340034003443
:1039E4000034003400340034003400340034003433
:1039F4000034003400340034003400340034003423
:103A0400003400340034003400340134033403340B
:103A1400073407340F340F341F341E341E343C343F
:103A24003C343834783470347034F034F034E03466
:103A3400E034E034C034C034C034C034C0348034E2
:103A440080348034803480348034803400340034D2
:103A540000340034003400340034003400340034C2
:103A640000340034003400340034003400340034B2
:103A740000340034803480348034803480348034A2
:103A8400C034C034C034C034C034E034E034E03432
:103A9400E034F03470347034783438343C343C34AA
:103AA4001C341E341E340F340F34073407340334EB
:103AB400033401340034003400340034003400345E
:103AC4000034003400340034003400340034003452
:103AD4000034003400340034003400340034003442
:103AE4000034003400340034003400340034003432
:103AF4000034003400340034003400340034003422
:103B04000034003400340034003400340034003411
:103B14000034003400340034003400340034003401
:103B240000340034003400340034003400340034F1
:103B340000340134013401340134013403340334D6
:103B440003340334033403340334033407340734B1
:103B54000734073407340734073407340734073489
:103B64000734073407340734073407340734073479
:103B74000734033403340334033403340334033485
:103B84000334013401340134013401340034003489
:103B94000034003400340034003400340034003481
:103BA4000034003400340034003400340034003471
:103BB4000034003400340034003400340034003461
:103BC4000034003400340034003400340034003451
:103BD4000034003400340034003400340034003441
:103BE40050344134543452344934433449344134E4
:103BF40020344D344134453420343C34333400349F
:02400E003A3F37
:00000001FF
