:020000040000FA
:060000000A128A11FC2F18
:100E7000F000831203130C1E3E2F3F2F392F7008F2
:100E80009900080083120313181D472F482F492F7C
:100E90001A08981C4C2F4D2F4F2F181218168C1E05
:100EA000522F532F4F2F1A080800831603130717CA
:100EB00087178312031398178316031318158130AD
:100EC000990018128312031318168B170B17831629
:100ED00003130C168C16181383120313181383169E
:100EE000031398160800F300F201852F72087307A8
:100EF000F1007108840000080A128A1138270A12CA
:100F00008A110130F1007108F20772087307F100CD
:100F10007108840083130008031D8F2F902F762FF4
:100F200008000A128A1155270A128A110630F800A1
:100F30001330F700AD30F600F60B9C2FF70B9C2F0B
:100F4000F80B9C2FA32F20300A128A11C0270A12F7
:100F50008A111A30F8005E30F7006E30F600F60B9A
:100F6000AF2FF70BAF2FF80BAF2F000020300A1276
:100F70008A1173270A128A11A32F0A128A110028D4
:100F8000F300F4010A128A1142270A128A11F100B1
:100F90007108F5000D3075060319CF2FD02FD62F0D
:100FA0000A307506031DD52FD62FDE2F7408730760
:100FB000F1007108840083138001FB2F083075064F
:100FC000031DE32FE42FEC2F74080319E82FE92FFA
:100FD000EC2F0130F402C22F7508F100740873077A
:100FE000F200720884007108831380000130F10060
:100FF0007108F407C22F080083010A128A11912F89
:02400E003A3F37
:00000001FF
