:020000040000FA
:1000000002EF00F07D0E406EEB0E416EC50E426EAB
:100010005B0E436E816A836A936A956A000E076E6F
:10002000402401E3072A4EEC00F043EC00F043ECDF
:1000300000F043EC00F08350412401E3072A4EEC2A
:1000400000F043EC00F043EC00F043EC00F0835090
:10005000422401E3072A4EEC00F043EC00F043ECAD
:1000600000F043EC00F08350432401E3072A4EECF8
:1000700000F043EC00F043EC00F043EC00F0835060
:10008000066E41EF00F0FF0E046EFF0E056E0000DD
:1000900000000506FCE10406F8E11200836E07C0CB
:0400A00081FF1200CA
:0200A40000005A
:020000040030CA
:010001000CF2
:010003001EDE
:010005008179
:010006008178
:00000001FF
