:020000040000FA
:100000000A128A11F42F00308A000408840A820739
:100010000034743465347334743469346E34673442
:10002000203472346F3477342034313400347434F3
:1000300065347334743469346E3467342034723404
:100040006F34773420343234003464346934733498
:1000500070346C34613479342034733468346934E6
:1000600066347434003470346134743472346934F6
:1000700063346934613420346D3461346534003460
:1007AA00083483120313B00100300A128A11952407
:1007BA000A128A11080018300A128A115C240A12D5
:1007CA008A114230F600F60BE82B000008001C30B4
:1007DA000A128A115C240A128A114230F600F60BB8
:1007EA00F42B000008008316031311081F39031D98
:1007FA00FF2B002CF82B1419032C042CF82B0800BF
:10080A000830F200720883120313B00000300A1293
:10081A008A1195240A128A1108000A128A11F823E9
:10082A000A128A1183160313111411181D2C1E2C77
:10083A001A2C831203138C1108000A128A11F82346
:10084A000A128A1183160313111511192D2C2E2C35
:10085A002A2C831203138C11080001300A128A1100
:10086A005C240A128A112130F7007630F600F60B62
:10087A003C2CF70B3C2C00000800F30083120313F6
:10088A002F08F2007208F304730804380A128A1156
:10089A0095240A128A117308FB390A128A119524BF
:1008AA000A128A115330F200F20B592C0800F50093
:1008BA0083120313AF017508F0390A128A11422410
:1008CA000A128A117508F40003300310F40DFF3E72
:1008DA00031D6A2C0310740DF0390A128A1142247E
:1008EA000A128A110800F50083120313AF01AF0A36
:1008FA007508F0390A128A1142240A128A117508F7
:10090A00F40003300310F40DFF3E031D872C03107F
:10091A00740DF0390A128A1142240A128A11080047
:10092A00F1000A128A11F8230A128A110A128A118C
:10093A0012240A128A114E300A128A11DA240A1271
:10094A008A1171088312031330040A128A11DA24F5
:10095A000A128A110A128A1122240A128A1108001A
:10096A00F800F601F701CC2C7608780784000A1201
:10097A008A1103200A128A110A128A1178240A1289
:10098A008A110130F6070318F70A0030F7077608CC
:10099A00780784000A128A1103200A128A11003A7F
:1009AA00031DD82CD92CB92C0800F0000A128A1180
:1009BA00F8230A128A117008831203139300941FF2
:1009CA00E72CE82CEB2C9413700893008C1DEE2C6A
:1009DA00EF2CEB2C83160313111FF42CF52CFA2C95
:1009EA000A128A1122240A128A11831203138C1101
:1009FA008316031311080800F900232D7608BF3E59
:100A0A000A128A115C240A128A11362D7608933E3C
:100A1A000A128A115C240A128A11362D7608D33EEC
:100A2A000A128A115C240A128A11362D76087F3E30
:100A3A000A128A115C240A128A11362D7908F700E3
:100A4A00F8017808003A03192B2D1B2D7708023A72
:100A5A000319032D013A03190B2D073A0319132D14
:100A6A001B2D0800183083120313A40024088316D0
:100A7A0003138704831203132008A4002108A50086
:100A8A002208A6002308A70002300310A40DA50D12
:100A9A00A60DA70DFF3E031D4A2D2708F3002608C1
:100AAA00F2002508F1002408F0000130F700313087
:100ABA00F6002D30F5000030F4000A128A117A256A
:100ACA000A128A117008FF3E8316031393009417C3
:100ADA00283083120313A4002408940483160313F2
:100AEA001108831203138C1108000030FC00003037
:100AFA00FB000030FA000030F90073087204710438
:100B0A0070040319892D8A2DD72DFD01FD0A9A2D0E
:100B1A000130F8000310F00DF10DF20DF30DF80B92
:100B2A008F2D0130F8007808FD07F31F9D2D9E2DAB
:100B3A008D2D0130F8000310F90DFA0DFB0DFC0D97
:100B4A00F80BA02D73087702031DB52D72087602E3
:100B5A00031DB52D71087502031DB52D70087402A9
:100B6A00031CB82DB92DC82D7008F4027108031C96
:100B7A00710FF5027208031C720FF6027308031C48
:100B8A00730FF702791401300310F30CF20CF10C15
:100B9A00F00CFF3E031DC92D0130FD02031DD62DA9
:100BAA00D72D9E2D7C08F3007B08F2007A08F1000D
:100BBA007908F0000800003083120313A300013003
:100BCA00A2008630A100A030A0000A128A1137259F
:100BDA000A128A11073083120313AA005830A90097
:100BEA005930A800A80BF72DA90BF72DAA0BF72D42
:100BFA00823083120313A900DD30A800A80B032E4C
:100C0A00A90B032E00300A128A1195240A128A119E
:100C1A00C33083120313A900CC30A800A80B132EEB
:100C2A00A90B132E000003300A128A115C240A123F
:100C3A008A11213083120313A9007530A800A80B6A
:100C4A00242EA90B242E292E03300A128A115C2481
:100C5A000A128A11213083120313A9007530A800E1
:100C6A00A80B352EA90B352E3A2E03300A128A11FB
:100C7A005C240A128A11213083120313A9007530E9
:100C8A00A800A80B462EA90B462E4B2E02300A129C
:100C9A008A115C240A128A11213083120313A900D3
:100CAA007530A800A80B572EA90B572E5C2E28309A
:100CBA000A128A115C240A128A110230831203135F
:100CCA00AA004530A900A930A800A80B6A2EA90BD2
:100CDA006A2EAA0B6A2E0C300A128A115C240A1296
:100CEA008A11023083120313AA004530A900A930E1
:100CFA00A800A80B7E2EA90B7E2EAA0B7E2E0130F1
:100D0A000A128A115C240A128A110230831203130E
:100D1A00AA004530A900A930A800A80B922EA90B59
:100D2A00922EAA0B922E06300A128A115C240A12FB
:100D3A008A11023083120313AA004530A900A93090
:100D4A00A800A80BA62EA90BA62EAA0BA62E080051
:100D5A000A128A11E0250A128A1102308312031339
:100D6A00AD004530AC00A930AB00AB0BBA2EAC0BD2
:100D7A00BA2EAD0BBA2E0A128A1132240A128A111D
:100D8A00F601F60A01300A128A1101250A128A119D
:100D9A0001300A128A11B5240A128A111A308312F2
:100DAA000313AD005E30AC006D30AB00AB0BDB2E35
:100DBA00AC0BDB2EAD0BDB2EE22E0A128A1132248B
:100DCA000A128A11F601F60A02300A128A1101255C
:100DDA000A128A110F300A128A11B5240A128A11CC
:100DEA001A3083120313AD005E30AC006D30AB00D5
:100DFA00AB0BFD2EAC0BFD2EAD0BFD2E042F0A12F4
:100E0A008A1132240A128A111D300A128A11B52453
:100E1A000A128A110A128A1132240A128A112B30F2
:100E2A000A128A11B5240A128A111A30831203137C
:100E3A00AD005E30AC006D30AB00AB0B222FAC0BBB
:100E4A00222FAD0B222F292F0A128A11EC230A1204
:100E5A008A11083083120313AD009D30AC000530AF
:100E6A00AB00AB0B362FAC0B362FAD0B362F0A125D
:100E7A008A11EC230A128A11083083120313AD0077
:100E8A009D30AC000530AB00AB0B492FAC0B492FA2
:100E9A00AD0B492F0A128A11EC230A128A11083063
:100EAA0083120313AD009D30AC000530AB00AB0BD1
:100EBA005C2FAC0B5C2FAD0B5C2F0A128A11E0235E
:100ECA000A128A11083083120313AD009D30AC0058
:100EDA000530AB00AB0B6F2FAC0B6F2FAD0B6F2F29
:100EEA000A128A11E0230A128A11083083120313A4
:100EFA00AD009D30AC000530AB00AB0B822FAC0BC4
:100F0A00822FAD0B822F0A128A11E0230A128A114C
:100F1A00083083120313AD009D30AC000530AB00DE
:100F2A00AB0B952FAC0B952FAD0B952F0A128A118F
:100F3A0032240A128A110A128A11D6230A128A1133
:100F4A000D3083120313AD00AF30AC00B530AB00E7
:100F5A00AB0BAD2FAC0BAD2FAD0BAD2FB42F0A12CF
:100F6A008A1105240A128A110D3083120313AD0067
:100F7A00AF30AC00B530AB00AB0BC12FAC0BC12FFF
:100F8A00AD0BC12FC82F0A128A11D6230A128A1151
:100F9A000D3083120313AD00AF30AC00B530AB0097
:100FAA00AB0BD52FAC0BD52FAD0BD52FDC2F0A12DF
:100FBA008A1105240A128A110D3083120313AD0017
:100FCA00AF30AC00B530AB00AB0BE92FAC0BE92F5F
:100FDA00AD0BE92FF02FC52E0A128A1100280A122A
:100FEA008A11D5230A128A11B000AE01AF0183011A
:060FFA000A128A11AD2E5F
:02400E003A3F37
:00000001FF
