:020000040000FA
:100000000A128A11FC2FFF1B0D2883137F188317F8
:100010000008840A0319FF0A080000308A00040857
:10002000840A82070034013400340A340034643412
:100030000034E834033410342734013400341034ED
:10004000003400340134003410343034313432346C
:100050003334343435343634373438343934613425
:100060006234633464346534663400347234653425
:10007000613464342F3477347234693474346534C1
:100080002034743465347334743400347234653419
:100090006134643420343D342034303478340034D6
:1000A0007734723469347434653420343D34203408
:1000B0000034763461346C34753465343A34203429
:1000C000003465346534703472346F346D34003408
:0C00D000253464340034253478340034C6
:10025C008316031311081F39031D352936292E293E
:10026C00141939293A292E2908000A128A112E212B
:10027C000A128A11831603139114911846294729DF
:10028C004329831203138C1108000A128A112E21A0
:10029C000A128A118316031311141118562957299F
:1002AC005329831203138C1108000A128A112E2170
:1002BC000A128A118316031311151119662967295D
:1002CC006329831203138C110800F20083120313A9
:1002DC00081172080A128A11AA210A128A110A122A
:1002EC008A1191210A128A11080000300A128A110F
:1002FC006B210A128A1101300A128A116B210A121F
:10030C008A110D30F400FB30F300F30B8B29F40B46
:10031C008B29902908008312031388150430F100EF
:10032C003D30F000F00B9829F10B98299D29831290
:10033C00031388110430F1003D30F000F00BA429B8
:10034C00F10BA429A9290800F000701CAE29AF29D3
:10035C00B329831203130816B62983120313081248
:10036C00F01CB929BA29BC298816BD298812701D20
:10037C00C029C129C3290817C4290813F01DC7298E
:10038C00C829CA298817CB2988130800F1000A123A
:10039C008A112E210A128A11831603139115141C2B
:1003AC00D829D929D529831203131308F000700812
:1003BC00F200710C83160313031C9112031891168F
:1003CC001116111AEA29EB29E729831203138C1150
:1003DC0072080800F0000A128A112E210A128A11E2
:1003EC007008831203139300941FFD29FE29012A20
:1003FC009413700893008C1D042A052A012A831675
:10040C000313111F0A2A0B2A102A0A128A115B21C4
:10041C000A128A11831203138C1183160313110809
:10042C000800F50075080F39F2007208F300750822
:10043C00F039F2007208F4008312031308157408E3
:10044C00F20004300310F20CFF3E031D282A720840
:10045C000A128A11AA210A128A110A128A119121EE
:10046C000A128A1173080A128A11AA210A128A1115
:10047C000A128A1191210A128A110800780879044B
:10048C000319492A4A2A792AFD01FD0A582A013002
:10049C000310F80DF90DFF3E031D4E2A0130FC0030
:1004AC007C08FD07F91F5B2A5C2A4D2A79087B0220
:1004BC00031D622A78087A02031C652A662A6C2AB4
:1004CC007808FA027908031CFB03FB0201300310C5
:1004DC00F90CF80CFF3E031D6D2A0130FD02031DC3
:1004EC00782A792A5C2A7B08F9007A08F800080037
:1004FC00FB01FC01A32A7B087607F9007708F800BA
:10050C000318F80AFB1F8B2AF8037808FA007A08FC
:10051C0083120313FF00790884000A128A11032046
:10052C000A128A110A128A1117220A128A11013030
:10053C00FB070318FC0A0030FC077B087607F90060
:10054C007708F8000318F80AFB1FAD2AF80378089F
:10055C00FA007A0883120313FF00790884000A1248
:10056C008A1103200A128A11003A031DBE2ABF2ADF
:10057C00812A0800183083120313A4002408831660
:10058C0003138704831203132008A4002108A50079
:10059C002208A6002308A70002300310A40DA50D05
:1005AC00A60DA70DFF3E031DD32A2708F30026082E
:1005BC00F2002508F1002408F0000130F70031307A
:1005CC00F6002D30F5000030F4000A128A11F323E6
:1005DC000A128A117008FF3E8316031393009417B6
:1005EC00283083120313A4002408940483160313E5
:1005FC001108831203138C110800F501F601700821
:10060C00710403190A2B0B2B422BF701F70A192B38
:10061C0001300310F00DF10DFF3E031D0F2B0130C7
:10062C00F4007408F707F11F1C2B1D2B0E2B013047
:10063C000310F50DF60DFF3E031D1E2B7108730202
:10064C00031D2A2B70087202031C2D2B2E2B352B0D
:10065C007008F2027108031CF303F30275140130E5
:10066C000310F10CF00CFF3E031D362B0130F7028A
:10067C00031D412B422B1D2B7608F1007508F00051
:10068C000800F6007603031D4C2B4D2B6F2B7308C3
:10069C007F3EF4007408F9007908F400043003106C
:1006AC00F40CFF3E031D552B7408F5007508F8007B
:1006BC0079080F39F4007408F70078080A128A11C7
:1006CC006B210A128A1177080A128A116B210A12FD
:1006DC008A1102307606031D742B752B972B730829
:1006EC00BF3EF4007408F9007908F40004300310DC
:1006FC00F40CFF3E031D7D2B7408F5007508F80003
:10070C0079080F39F4007408F70078080A128A1176
:10071C006B210A128A1177080A128A116B210A12AC
:10072C008A1108008230F400DD30F300F30B9C2BAF
:10073C00F40B9C2BA12B8316031308080339880098
:10074C0003300A128A116B210A128A112130F4002B
:10075C007630F300F30BB02BF40BB02B000003300E
:10076C000A128A116B210A128A11C730F300BE2BB0
:10077C00F30BBD2BC12BC22B03300A128A116B2138
:10078C000A128A1102300A128A116B210A128A117A
:10079C0002300A128A116B210A128A1108300A12CD
:1007AC008A116B210A128A1100300A128A116B21EC
:1007BC000A128A110C300A128A116B210A128A1140
:1007CC0000300A128A116B210A128A1106300A12A1
:1007DC008A116B210A128A1108000030FC000030CB
:1007EC00FB000030FA000030F90073087204710449
:1007FC0070040319022C032C502CFD01FD0A132C40
:10080C000130F8000310F00DF10DF20DF30DF80BA3
:10081C00082C0130F8007808FD07F31F162C172C54
:10082C00062C0130F8000310F90DFA0DFB0DFC0D30
:10083C00F80B192C73087702031D2E2C7208760204
:10084C00031D2E2C71087502031D2E2C70087402CA
:10085C00031C312C322C412C7008F4027108031C3F
:10086C00710FF5027208031C720FF6027308031C59
:10087C00730FF702791401300310F30CF20CF10C26
:10088C00F00CFF3E031D422C0130FD02031D4F2CCA
:10089C00502C172C7C08F3007B08F2007A08F1002E
:1008AC007908F000080083120313AA002130A3007A
:1008BC002308A700BC2D25302D060319662C672CA8
:1008CC00732C2D08A3002A088400230883138000AE
:1008DC000130A3002308AA07BC2DA901772CA91766
:1008EC00972C0130A007FF30200784000A128A11D0
:1008FC000D200A128A11AD00A300A4012408003AAD
:10090C000319892CBC2D2308003A0319CE2D643A07
:10091C000319972C0D3A0319972C113A0319752CBE
:10092C00BC2DA91B9A2C9B2CB52C27088400831357
:10093C000008AB00840A0008AC000230A3002308B6
:10094C00A707AC1FAA2CAB2C142D0330A300230833
:10095C00A904AB09AC09AB0A0319AC0A142D27087E
:10096C00840083130008AB00840A0008AC0002303A
:10097C00A3002308A707142DAD01AD0A2D08A30071
:10098C002307013E84000A128A110D200A128A11D3
:10099C00A4000A128A110D200A128A11A50025083A
:1009AC002C02031DDB2C24082B020318DE2CDF2C5D
:1009BC00E02C252D0130A3002308AD0705302D06B2
:1009CC00031DE92CEA2CC42C252DAD01AD0A2D08F4
:1009DC00A30023070B3E84000A128A110D200A1271
:1009EC008A11A4000A128A110D200A128A11A5007C
:1009FC0025082C02031D042D24082B020318072D97
:100A0C00082D092D252D0130A3002308AD07043036
:100A1C002D06031D122D132DED2C252D29088039A3
:100A2C00A300A4012408003A03191D2D252D230829
:100A3C00003A0319C22C803A0319EB2C252D2908F6
:100A4C00033903192A2D2B2D362D2D30A3002A08FE
:100A5C0084002308831380000130A3002308AA0715
:100A6C002D08A3002308A800B32D0A30F80000308D
:100A7C00F9002808A3002307013E84000A128A11FA
:100A8C000D200A128A11F0000A128A110D200A1286
:100A9C008A11F1002C08F3002B08F2000A128A11BB
:100AAC0003230A128A117108FB007008FA000A125B
:100ABC008A1144220A128A117808303E83120313D9
:100ACC00A4002408AD00A82D2808A30023070B3E82
:100ADC0084000A128A110D200A128A11F0000A12DF
:100AEC008A110D200A128A11F1002C08F3002B0830
:100AFC00F2000A128A1103230A128A1170080F39A4
:100B0C0083120313A4002408A6002608133E8400B5
:100B1C000A128A110D200A128A11A3002308AD00B3
:100B2C00A82D29088039A300A4012408003A031930
:100B3C00A02DA82D2308003A03193B2D803A031948
:100B4C006A2DA82D2D08A3002A08840023088313DE
:100B5C0080000130A3002308AA07FF30A30023085C
:100B6C00A807280A031DBB2DBC2D972D0130A0070B
:100B7C00FF30200784000A128A110D200A128A11F4
:100B8C00A3002308AD002D08031DCD2DCE2D612C07
:100B9C002A08840083138001080083120313C60102
:100BAC000F30831603138600003083120313A30047
:100BBC000130A2008630A100A030A0000A128A11D8
:100BCC00C0220A128A11063083120313B0001330AC
:100BDC00AF00AD30AE00AE0BF12DAF0BF12DB00B65
:100BEC00F12D0A128A1198230A128A1103308312EA
:100BFC000313B0008A30AF005530AE00AE0B042E9C
:100C0C00AF0B042EB00B042EF301F30A01300A12C1
:100C1C008A1147230A128A114F30F6008030F700F0
:100C2C000A128A117E220A128A11F301F30A023087
:100C3C000A128A1147230A128A112430F6008030D6
:100C4C00F7000A128A117E220A128A114D30831281
:100C5C000313B0001930AF004F30AE00AE0B342E82
:100C6C00AF0B342EB00B342E0A128A117B210A12D0
:100C7C008A11831203130618442E452EA62E043017
:100C8C0083120313B000CF30AF000130AE00AE0BB7
:100C9C004D2EAF0B4D2EB00B4D2E83120313061899
:100CAC00582E592EA62E043083120313B000CF30C9
:100CBC00AF000130AE00AE0B612EAF0B612EB00B4E
:100CCC00612E013083120313AE002E08C607460AAC
:100CDC00031D712E722E762EFF30AE002E08C6002C
:100CEC005630AE002E08A0004608AF00B0012F0809
:100CFC00A1003008A2003B300A128A1159240A12B2
:100D0C008A110A128A117B210A128A11F301F30A41
:100D1C0001300A128A1147230A128A114730F60051
:100D2C008030F7000A128A117E220A128A113B3097
:100D3C00F6000030F7000A128A117E220A128A117C
:100D4C00831203138618AB2EAC2E082F043083129B
:100D5C000313B000CF30AF000130AE00AE0BB42E99
:100D6C00AF0BB42EB00BB42E831203138618BF2E08
:100D7C00C02E082F043083120313B000CF30AF0005
:100D8C000130AE00AE0BC82EAF0BC82EB00BC82E68
:100D9C00013083120313C6024608031DD62ED72E2C
:100DAC00D82EC6015630AE002E08A0004608AF0063
:100DBC00B0012F08A1003008A2003B300A128A11A2
:100DCC0059240A128A110A128A117B210A128A11D9
:100DDC00F301F30A01300A128A1147230A128A110D
:100DEC004730F6008030F7000A128A117E220A1270
:100DFC008A113B30F6000030F7000A128A117E226D
:100E0C000A128A118312031386190D2F0E2F722FBB
:100E1C00043083120313B000CF30AF000130AE00AA
:100E2C00AE0B162FAF0B162FB00B162F831203130E
:100E3C008619212F222F722F043083120313B00036
:100E4C00CF30AF000130AE00AE0B2A2FAF0B2A2FE4
:100E5C00B00B2A2F0A128A112E210A128A110A1299
:100E6C008A114B210A128A11A0300A128A11F02120
:100E7C000A128A1110300A128A11F0210A128A11F0
:100E8C008312031346080A128A11F0210A128A11DE
:100E9C000A128A115B210A128A110A128A117B2109
:100EAC000A128A11F301F30A01300A128A1147233C
:100EBC000A128A113E30F6008030F7000A128A11AD
:100ECC007E220A128A113B30F6000030F7000A121B
:100EDC008A117E220A128A11831203130619772FA4
:100EEC00782F3F2E043083120313B000CF30AF00A5
:100EFC000130AE00AE0B802FAF0B802FB00B802FCC
:100F0C008312031306198B2F8C2F3F2E0430831260
:100F1C000313B000CF30AF000130AE00AE0B942FF6
:100F2C00AF0B942FB00B942F0A128A112E210A1298
:100F3C008A110A128A114B210A128A11A0300A1244
:100F4C008A11F0210A128A1110300A128A11F0212A
:100F5C000A128A110A128A113B210A128A11A13033
:100F6C000A128A11F0210A128A1101300A128A110E
:100F7C00CC210A128A1183120313AE002E08C5006D
:100F8C000A128A115B210A128A1159308312031337
:100F9C00AE002E08A0004508AF00B0012F08A1003C
:100FAC003008A20031300A128A1159240A128A110F
:100FBC00F301F30A02300A128A1147230A128A112A
:100FCC003430F6008030F7000A128A117E220A12A1
:100FDC008A113130F6000030F7000A128A117E2295
:100FEC000A128A113F2E0A128A11002883010A1252
:040FFC008A11D32D56
:02400E003A3F37
:00000001FF
