:020000040000FA
:060000000A128A110C280F
:10000800FE00030EF1000A08F2000A128A116D2898
:100018000A128A110F28F70183010A128A1114287B
:100028003F3083160313810090308B00880106143B
:10003800F601F60A5A280330F5008A30F4005530E4
:10004800F300F30B2528F40B2528F50B25282C287D
:100058007608F3007307F4007408F6007608831234
:10006800031388000808031D3A283B285A28013042
:1000780088005A280330F5008A30F4005530F30020
:10008800F30B4428F40B4428F50B44284B2883121F
:1000980003130808F3000310730C88000808031DF5
:1000A800562857285A28803088005A287708F3009D
:1000B800F4017408003A031962285A287308003AB0
:1000C80003191F28013A03193E285A280A128A11CF
:1000D8000C288B138B1C712872287D28770803192C
:1000E80076287828013079280030F0007008F70069
:1000F8008B108B1772088A00710E8300FE0E7E0E1D
:020108000900EC
:02400E003A3F37
:00000001FF
