:020000040000FA
:060000000A128A110C280F
:10000800FE00030EF0000A08F1000A128A11E72D1B
:100018000A128A110F28FA01FB0183010A128A11B8
:100028001528831603138801831203138801831686
:100038000313071087148312031307140A128A1173
:1000480015260A128A110A128A11CB220A128A115B
:100058003030F8008030F9000A128A1194240A120C
:100068008A11F501F50A02300A128A1126230A12AA
:100078008A110B30F8008030F9000A128A11942492
:100088000A128A11333083120313C400BB30C30031
:10009800DF30C200C20B4E28C30B4E28C40B4E28BB
:1000A8000A128A11FF250A128A110D3083120313CE
:1000B800C400AF30C300B530C200C20B6128C30B07
:1000C8006128C40B612868288312031307100F30B6
:1000D80083120313C200C20B6F2872288312031302
:1000E8000714871C782879285928101487187D2820
:1000F8007E287A2810107B0883160313CB007A0811
:10010800CA00FA01FB01EC30831203138F00783028
:100118008E000C10831603134B08F3004A08F200F4
:100128001130F4000030F5000A128A1187250A12EE
:100138008A11730883160313C9007208C800490896
:1001480083120313B500831603134808831203139D
:10015800B4001130B6000030B7009830B800013054
:10016800B9000030BA00BB00FF30BC000030BD0051
:100178000A128A117F230A128A1183120313340880
:1001880088000A128A11FF250A128A113730831251
:100198000313C2004208A6008316031349088312FA
:1001A8000313A80083160313480883120313A70038
:1001B800A0300A128A1144210A128A11F501F50A9F
:1001C80001300A128A1126230A128A111A30F800FD
:1001D8008030F9000A128A1194240A128A11A03078
:1001E800F8000030F9000A128A1194240A128A11C0
:1001F8003A30F8008030F9000A128A1194240A1261
:100208008A11373083120313C2004208A6008316EE
:1002180003134B0883120313A800831603134A0819
:1002280083120313A700B4300A128A1144210A1258
:100238008A11F501F50A02300A128A1126230A12D8
:100248008A112530F8008030F9000A128A119424A6
:100258000A128A11B430F8000030F9000A128A1123
:1002680094240A128A113430F8008030F9000A12F6
:100278008A1194240A128A1159280A128A110C2800
:1002880083120313B1002730A9002908AC00172AEC
:10029800253032060319512952295E293208A9004E
:1002A800310884002908831380000130A900290837
:1002B800B107172AAD010130A607FF3026078400D1
:1002C8000A128A110A240A128A11B200A900AA0184
:1002D8002A08003A03197129172A2908003A03192C
:1002E800292A643A03197C290D3A03197C29172A0B
:1002F8002C08840083130008AF00840A0008B000AB
:100308000230A9002908AC07B01F8B298C29952930
:100318000330A9002908AD04AF09B009AF0A0319D1
:10032800B00AB201B20A3208A9002907013E8400C6
:100338000A128A110A240A128A11AA000A128A11B8
:100348000A240A128A11AB002B083002031DAE29B9
:100358002A082F020318B129B229B329BD2901306F
:10036800A9002908B20705303206031DBC29BD299A
:1003780097292D0803390319C229C329CE292D30FD
:10038800A900310884002908831380000130A900DE
:100398002908B1073208A9002908AE000E2A0A3038
:1003A800A0000030A1002E08A9002907013E840002
:1003B8000A128A110A240A128A11F2000A128A11F0
:1003C8000A240A128A11F3003008F5002F08F400F5
:1003D8000A128A11DA240A128A1173088312031383
:1003E800A3007208A2000A128A111E250A128A1195
:1003F800831203132008303EAA002A08B2003208EC
:10040800A900310884002908831380000130A9005D
:100418002908B107FF30A9002908AE072E0A031DD5
:10042800162A172AD3290130A607FF302607840089
:100438000A128A110A240A128A11A9002908B2008C
:100448003208031D282A292A4C29310884008313DD
:100458008001080083120313AF01A81F342A352A2C
:10046800422AA509A609A709A809A50A0319A60ADF
:100478000319A70A0319A80AAF01AF0AAC1F452A36
:10048800462A552AA909AA09AB09AC09A90A0319D8
:10049800AA0A0319AB0A0319AC0A0130AD002D08EA
:1004A800AF060030B3000030B2000030B1000030B9
:1004B800B00028082704260425040319642A652A9D
:1004C800B22AAE01AE0A752A0130AD000310A50D9F
:1004D800A60DA70DA80DAD0B6A2A0130AD002D0899
:1004E800AE07A81F782A792A682A0130AD000310C0
:1004F800B00DB10DB20DB30DAD0B7B2A28082C023F
:10050800031D902A27082B02031D902A26082A0279
:10051800031D902A25082902031C932A942AA32A3A
:100528002508A9022608031C260FAA022708031C6F
:10053800270FAB022808031C280FAC023014013027
:100548000310A80CA70CA60CA50CFF3E031DA42A9B
:100558000130AE02031DB12AB22A792A2F080319E5
:10056800B62AB72AC22AB009B109B209B309B00A32
:100578000319B10A0319B20A0319B30A3308A80008
:100588003208A7003108A6003008A500080082300C
:10059800F600DD30F500F50BCF2AF60BCF2AD42A6A
:1005A8008316031306080339860003300A128A11DA
:1005B80025260A128A112130F6007630F500F50B4F
:1005C800E32AF60BE32A000003300A128A112526D3
:1005D8000A128A11C730F500F12AF50BF02AF42A1D
:1005E800F52A03300A128A1125260A128A110230C6
:1005F8000A128A1125260A128A1102300A128A1151
:1006080025260A128A1108300A128A1125260A128A
:100618008A1100300A128A1125260A128A110C3012
:100628000A128A1125260A128A1100300A128A1122
:1006380025260A128A1106300A128A1125260A125C
:100648008A11080083120313A0002003031D2D2B19
:100658002E2B522B75087F3EF6007608A300230840
:10066800F60004300310F60CFF3E031D362B760807
:10067800F7007708A20023080F39F6007608A100D2
:1006880022080A128A1125260A128A1183120313D4
:1006980021080A128A1125260A128A1102308312A9
:1006A80003132006031D592B5A2B7E2B7508BF3EBA
:1006B800F6007608A3002308F60004300310F60CB1
:1006C800FF3E031D622B7608F7007708A200230877
:1006D8000F39F6007608A10022080A128A11252689
:1006E8000A128A118312031321080A128A11252675
:1006F8000A128A110800831203133A08BE003B0845
:10070800BF00C001C10136083802A5003708031C24
:10071800370A3902A600A701A80136083402F200F8
:100728003708031C370A3502F300F401F5013A08CB
:100738003C02F6003B08031C3B0A3D02F700F801A7
:10074800F9010A128A114C240A128A1175088312B7
:100758000313AC007408AB007308AA007208A90060
:100768000A128A112E220A128A11831203132508EB
:10077800BE0726080318260FC22BC32BBF0727085E
:100788000318270FC82BC92BC00728080318280AE5
:10079800C1074108B7004008B6003F08B5003E0849
:0407A800B400080091
:10080000FF1B0A2C83137F1883170008840A03191F
:10081000FF0A080004308A000408840A82070034B2
:10082000013400340A34003464340034E8340334CE
:1008300010342734753473346D3420347334693490
:100840006D3475346C346134743469346F346E349F
:100850000034643469347334743461346E34633412
:1008600065343A342034003464347534723461347D
:10087000743469346F346E343A3420340034443480
:100880004134533400346D345334003425346434EB
:10089000003463346D340034003083120313A40039
:1008A0000030A3000030A2000030A100721C592CBF
:1008B0005A2C712C7608A107770803110318013E02
:1008C0000319632CA207780803110318013E0319CA
:1008D0006A2CA307790803110318013E0319712C30
:1008E000A4070130A0000310F60DF70DF80DF90D67
:1008F000A00B732C01300310F50CF40CF30CF20C6C
:10090000FF3E031D7B2C7508740473047204031DE1
:100910008A2C8B2C562C2408F5002308F40022087E
:10092000F3002108F200080083120313A301A401BD
:10093000BD2C23087807A1007908A0000318A00A9D
:10094000A31FA32CA003831203132008A2002208D4
:10095000FF00210884000A128A1100240A128A1159
:100960000A128A115A250A128A11013083120313BE
:10097000A3070318A40A0030A40723087807A100DE
:100980007908A0000318A00AA31FC72CA003831294
:1009900003132008A2002208FF00210884000A1285
:1009A0008A1100240A128A11003A031DD82CD92C6E
:1009B000992C0800F801F901720873040319E12C5D
:1009C000E22C192DF701F70AF02C01300310F20D7B
:1009D000F30DFF3E031DE62C0130F6007608F70705
:1009E000F31FF32CF42CE52C01300310F80DF90D56
:1009F000FF3E031DF52C73087502031D012D7208BF
:100A00007402031C042D052D0C2D7208F4027308CA
:100A1000031CF503F502781401300310F30CF20CFB
:100A2000FF3E031D0D2D0130F702031D182D192D5A
:100A3000F42C7908F3007808F200080083120313FD
:100A4000200821040319252D262D552DA501A50AC1
:100A5000342D01300310A00DA10DFF3E031D2A2DE2
:100A60000130A4002408A507A11F372D382D292DFA
:100A700021082302031D3E2D20082202031C412DC4
:100A8000422D482D2008A2022108031CA303A30223
:100A900001300310A10CA00CFF3E031D492D0130B5
:100AA000A502031D542D552D382D2308A100220821
:100AB000A0000800F70077080F39F4007408F5006B
:100AC0007708F039F4007408F60083120313061552
:100AD0007608F40004300310F40CFF3E031D6B2D68
:100AE00074080A128A11AC250A128A110A128A1194
:100AF000CE250A128A1175080A128A11AC250A122B
:100B00008A110A128A11CE250A128A110800F601EA
:100B1000F701721C8C2D8D2D932D7408F607031888
:100B2000F70A7508F70701300310F40DF50DFF3EC5
:100B3000031D942D01300310F30CF20CFF3E031D36
:100B40009B2D72087304031DA62DA72D892D7708F0
:100B5000F3007608F2000800F200721CB02DB12DEF
:100B6000B52D831203130616B82D83120313061234
:100B7000F21CBB2DBC2DBE2D8616BF2D8612721DFC
:100B8000C22DC32DC52D0617C62D0613F21DC92D66
:100B9000CA2DCC2D8617CD2D861308008312031382
:100BA00086150430F3003D30F200F20BD52DF30B27
:100BB000D52DDA2D8312031386110430F3003D3056
:100BC000F200F20BE12DF30BE12DE62D080083126C
:100BD00003130C1CEC2DED2DF82D0130FA07031832
:100BE000FB0A0030FB07EC308F0078308E000C10D1
:100BF00071088A00700E8300FE0E7E0E0900003020
:100C00000A128A1125260A128A1101300A128A1143
:100C100025260A128A110D30F600FB30F500F50B7F
:100C20000F2EF60B0F2E142E08008B170B178316A2
:100C300003130C14831203130C1090109012101253
:100C4000EC308F0078308E000800F400831203131C
:100C5000061174080A128A11AC250A128A110A12A6
:0A0C60008A11CE250A128A1108003D
:02400E003A3F37
:00000001FF
